:100000000C9438000C9455000C9455000C94550039
:100010000C9455000C9455000C9455000C9455000C
:100020000C9455000C9455000C9455000C945500FC
:100030000C9455000C9455000C948B010C945500B5
:100040000C9455000C9455000C9455000C945500DC
:100050000C9455000C9455000C9455000C945500CC
:100060000C9455000C9455006E616E00696E66002C
:1000700011241FBECFEFD8E0DEBFCDBF12E0A0E05D
:10008000B1E0E8E8F7E602C005900D92A832B107AA
:10009000D9F722E0A8E2B2E001C01D92AB37B20767
:1000A000E1F70E94D7260C9445330C940000CF92C0
:1000B000DF92EF92FF926B017C0120E030E0A9011A
:1000C000C701B6010E94DA2D87FF04C0F7FAF09449
:1000D000F7F8F094C701B601FF90EF90DF90CF9052
:1000E0000895CF92DF92EF92FF926B017C0120E0A6
:1000F00030E0A901C701B6010E94DA2D87FF04C0D4
:10010000F7FAF094F7F8F09427E137EB41ED58E374
:10011000C701B6010E94DA2D082E000C990B97FB3F
:10012000882780F990E0FF90EF90DF90CF900895BE
:100130002F923F924F925F926F927F928F929F92F7
:10014000AF92BF92CF92DF92EF92FF920F931F93E5
:10015000CF93DF93CDB7DEB765970FB6F894DEBFC8
:100160000FBECDBF1B014C0120E030E0A9016D871F
:100170003E868F87988A6D857E858F8598890E94B7
:10018000DA2D18160CF05FC0032D182D9D8A8AE019
:10019000A82EB12CCD84D02EE12EFD88A70196018A
:1001A00029823A828B829C8269817A818B819C81AF
:1001B0000E94DF2D4C2C502E612E7F2CA30192012A
:1001C0006D837E838F8398876D817E818F819885F3
:1001D0000E946E2D20E030E040E05FE369877A877F
:1001E0008B879C8769857A858B859C850E943E2FAD
:1001F0006D87072F182F9D8B81E0A81AB10851F643
:100200003D858D89398B0A8B1B8B8C8B69897A890B
:100210008B899C8965960FB6F894DEBF0FBECDBF63
:10022000DF91CF911F910F91FF90EF90DF90CF90D2
:10023000BF90AF909F908F907F906F905F904F9006
:100240003F902F9008951D8600E010E01D8AD8CFC2
:100250004F925F926F927F928F929F92AF92BF92D6
:10026000CF92DF92EF92FF920F931F93CF93DF9382
:100270008B01D82FC92F9B01482F592FCA01B901D3
:100280000E94512E072E000C880B990B0E94892E7C
:100290002B013C01A30192014801AD2EBC2EC501EA
:1002A000B4010E946D2D6B017C0120E030E0A901BA
:1002B000C701B6010E94DA2D87FF04C0F7FAF09457
:1002C000F7F8F09427E137EB41ED58E3C701B601A9
:1002D0000E94DA2D082E000C990B97FB882780F9D5
:1002E00090E0DF91CF911F910F91FF90EF90DF9001
:1002F000CF90BF90AF909F908F907F906F905F90C6
:100300004F90089582E084BD93E095BD99EF97BD2D
:1003100080936E0008951F921FB61F9211248F9331
:100320009F93AF93BF938091770290917802A091B1
:100330007902B0917A020196A11DB11D80937702D6
:1003400090937802A0937902B0937A02BF91AF9113
:100350009F918F911F901FBE1F90189587B1807E2F
:1003600087B9579884B18C7F84B988B18F6188B977
:100370005F9A85B1836085B908952C989BB1937C71
:100380009BB984FD5D9A85FD5C9A86FD5B9A87FD2D
:100390005A9A2B9A95E09A95F1F700002B98EFE87E
:1003A000F1E03197F1F700C000009BB1937C9BB95D
:1003B00080FD5D9A81FD5C9A82FD5B9A83FD5A9A6D
:1003C0002B9AF5E0FA95F1F700002B988FE891E071
:1003D0000197F1F700C00000089584B1886184B9E5
:1003E0008AB18C638AB92FEF80E792E02150804078
:1003F0009040E1F700C0000083E30E94BD018FE15F
:100400009EE40197F1F700C0000082E30E94BD0165
:100410008FE99FE00197F1F700C0000088E20E9499
:10042000BD018CE00E94BD0186E00E94BD0181E01B
:100430000E94BD018FE39FE10197F1F700C000002A
:1004400008952C9A9BB1937C9BB984FD5D9A85FDA0
:100450005C9A86FD5B9A87FD5A9A2B9A95E09A954D
:10046000F1F700002B98EFE8F1E03197F1F700C0C9
:1004700000009BB1937C9BB980FD5D9A81FD5C9AE5
:1004800082FD5B9A83FD5A9A2B9AF5E0FA95F1F773
:1004900000002B988FE891E00197F1F700C0000071
:1004A0000895CF93DF93EC018881811531F0219677
:1004B0000E94210289918111FBCFDF91CF91089594
:1004C000811104C080E8860F0C94BD0180EC860F7A
:1004D0000C94BD012C988BB1837C8BB92B9A85E051
:1004E0008A95F1F700002B988FE891E00197F1F7DA
:1004F00000C000008BB1837C8BB95D9A2B9A95E08C
:100500009A95F1F700002B988FE891E00197F1F7A9
:1005100000C000008FE39FE10197F1F700C00000E9
:1005200008950F931F93CF93DF93CDB7DEB76197F5
:100530000FB6F894DEBF0FBECDBF81E00E94BD01B3
:100540008FE39FE10197F1F700C0000000912802BE
:10055000011509F4C2C0013108F451C010E0F801DE
:10056000E75EFD4F8081811549F0065E1D4F0E94B8
:100570002102F80181918F018111F9CF80EC0E9455
:10058000BD0180916A02813009F44FC0823009F4C4
:10059000A8C0811125C0809175028111CBC08091C6
:1005A00076021F928F9388E791E09F938F93CE01FD
:1005B00001969F938F930E94623189810F900F90D3
:1005C0000F900F900F900F90811551F08E010E5FDC
:1005D0001F4F0E942102F80181918F018111F9CFF3
:1005E00080916902811153C061960FB6F894DEBF05
:1005F0000FBECDBFDF91CF911F910F9108958091D4
:1006000029020AE212E0811509F4B8CF0E94210202
:10061000F80181918F018111F9CF80EC0E94BD0119
:1006200080916A02813009F0B1CF80917402E0912B
:100630001C01F0911D01E80FF11D8081282F082E6B
:10064000000C330B3F938F9382E891E09F938F933D
:10065000CE0101969F938F930E94623189810F9002
:100660000F900F900F900F900F90811509F4B8CF55
:100670008E010E5F1F4F0E942102F80181918F01B0
:100680008111F9CF80916902811509F4ADCF8CEC0D
:100690000E94BD01809169021F928F9382E991E0CF
:1006A0009F938F93CE0101969F938F930E94623107
:1006B00089810F900F900F900F900F900F908115E0
:1006C00009F492CF8E010E5F1F4F0E942102F801A4
:1006D00081918F018111F9CF87CF80E30E942102A0
:1006E0004DCFE0917302EE0FFF0BE050FF4F818181
:1006F0008F9380818F9389E891E09F938F93CE01B0
:1007000001969F938F930E94623189810F900F9081
:100710000F900F900F900F90811509F461CF8E010B
:100720000E5F1F4F0E942102F80181918F018111FC
:10073000F9CF56CF0BE611E084E40E942102F801C4
:1007400081918F018111F9CF4BCFCF93DF93DC01E2
:10075000E09128028C91811579F0CE2FD0E0C75D11
:10076000DD4F08C0EF5FE09328028D9189938C9153
:10077000811511F0EF33B0F3F0E0E75DFD4F10822B
:10078000DF91CF910895AF92BF92CF92DF92EF9217
:10079000FF920F931F93CF93C0912802C11591F040
:1007A000CC2ED12CF601E85DFD4F80818932A1F07D
:1007B0008832C1F0C150C0932802EC2FF0E0E75D11
:1007C000FD4F1082CF911F910F91FF90EF90DF901E
:1007D000CF90BF90AF900895809169028F5F809312
:1007E0006902E8CF8091690281508093690280E0BC
:1007F000E82E81E0F82E9CE1A92E91E0B92E03C0ED
:10080000AE14BF04B9F2F701A191B1917F01FD01CE
:1008100001900020E9F731978F010A1B1B0B0C1583
:100820001D0574F7A801BD01C601801B910B885DF1
:100830009D4F0E941931892B19F7C01BBBCF803304
:100840007CF48A3254F08A529BE201C096958A95D4
:10085000EAF7892F817090E0089580E090E0089594
:1008600021E08E3509F020E090E0822F08958A5231
:100870008B3448F4E82FF0E0E25EFE4F8081082ED2
:10088000000C990B089580E090E008952F923F921C
:100890004F925F926F927F928F929F92AF92BF9290
:1008A000CF92DF92EF92FF920F931F93CF93DF933C
:1008B000CDB7DEB7C654D1090FB6F894DEBF0FBE70
:1008C000CDBF26966FAF269727967FAF2797182F15
:1008D000092F4DAF5EAF2FAF21963FAF21972BED84
:1008E0003FE049EC50E46DA37EA38FA398A76DA1D0
:1008F0007EA18FA198A50E94392F87FD14C12BEDF1
:100900003FE049EC50E42696CFAC26972796DFAC23
:100910002797E12EF02EC701B6010E946D2D269675
:100920006FAF269727967FAF2797182F092F2BEDAC
:100930003FE049EC50E44B01A82EB92EC501B401AB
:100940000E94392F87FFDBCF20E030E0A9012696F7
:100950008FAD269789A72796EFAD2797EAA71BA704
:100960000CA769A57AA58BA59CA50E94392F1816FE
:100970000CF013C1512C612C712C812C912CA12CC9
:1009800020E8B22E3FE3C32EF12CD12CE12C412CD8
:100990002696FFAD2697FDA3F9AE27964FAD279774
:1009A00049A7212E302E27E137EB41ED58E39982FC
:1009B000AA82BB82CC8269817A818B819C810E94D0
:1009C0003E2F6D837E838F8398872D813E814F815B
:1009D0005885F9AC0D2D1E2D22964FAE2297F98623
:1009E000DA86EB864C8669857A858B859C850E94A4
:1009F0006E2D69AFD72EE82E492E27E137EB41ED5A
:100A000058E3FD860E871F8722967FAD2297788B4D
:100A10006D857E858F8598890E943E2F698B7A8BA4
:100A20008B8B9C8B29893A894B895C899D8AAE8AFC
:100A3000BF8AC88E6D897E898F89988D0E946D2DA1
:100A4000962EA72EB82EC92E27E137EB41ED58E39D
:100A5000598E6A8E7B8E8C8E698D7A8D8B8D9C8D56
:100A60000E946E2D562E672E782E892E8DA18D8F89
:100A7000E9A5EE8F2F8E38A22D8D3E8D4F8D58A17A
:100A800059A26AA27BA28CA269A17AA18BA19CA186
:100A90000E94DA2D87FD87CFF9AC3F2D2D2D9E2D9D
:100AA000842DFDA6DEA6EFA648AA4DA55EA56FA5DE
:100AB00078A9EDADFEAD408351836283738399AA1B
:100AC000AAAABBAACCAA49A95AA96BA97CA9219612
:100AD000EEADFFAD21974083518362837383B901EB
:100AE000AC017DAB6EAB5FAB48AF6DA97EA98FA9A2
:100AF00098ADCA5BDF4F0FB6F894DEBF0FBECDBF17
:100B0000DF91CF911F910F91FF90EF90DF90CF90E9
:100B1000BF90AF909F908F907F906F905F904F901D
:100B20003F902F90089520E030E0A90126966FAD08
:100B3000269769AF27967FAD27977AAF1BAF0CAF8B
:100B400069AD7AAD8BAD9CAD0E94DA2D87FFFCCEEE
:100B50002BED3FE049EC50E426964FAC26972796C4
:100B60005FAC2797612E702EC301B2010E946E2DDB
:100B700026966FAF269727967FAF2797182F092FB6
:100B800020E030E0A9016B01E82EF92EC701B60183
:100B90000E94DA2D87FDDCCFD7CE912CA12C80E8E6
:100BA000B82E9FE3C92EF12CD12CE12C412C75CF0E
:100BB0002F923F924F925F926F927F928F929F926D
:100BC000AF92BF92CF92DF92EF92FF920F931F935B
:100BD000CF93DF93CDB7DEB7CC57D1090FB6F894DA
:100BE000DEBF0FBECDBF698F7A8F182F092F20E08F
:100BF00030E040E85FEB798D6A8DC801C72ED62EB4
:100C0000E92EF82EC701B6010E94DA2D87FDE4C255
:100C100020E030E040E85FE3C8018C2C9D2CA92E39
:100C2000B02EC501B4010E94392F18160CF0BAC1BC
:100C3000A6961FAEA697A7961FAEA79710E80FE33C
:100C4000A8961FAFA897A9960FAFA997A6968FADA4
:100C5000A6978BA7A7969FADA7979CA7A896AFAD81
:100C6000A897ADA7A996BFADA997BEA782E390E0CC
:100C700025969FAF8EAF259761964CAE5DAE6EAE5A
:100C80007FAE61972BED3FE049EC50E47BA56CA56E
:100C90009DA58EA57FA368A799A78AA76FA178A510
:100CA00089A59AA50E94392F87FD85C19BA5ACA572
:100CB0001DA50EA59D8BA98F2BED3FE049EC50E4BF
:100CC0002D88398C412E502EC201B1010E946D2D0C
:100CD0006D8B798F182F092F2BED3FE049EC50E4F5
:100CE000762F698DC801C72ED62EE92EF82EC701A2
:100CF000B6010E94392F87FFDFCFCF8ED8A265962D
:100D00002CAE3DAE4EAE5FAE65976996CCAEDDAE15
:100D1000EEAEFFAE699720E030E0A9017F8D68A1BB
:100D2000C8017BA36CA39DA30EA36BA17CA18DA185
:100D30009EA10E94392F18160CF0D3C1198E312CA8
:100D4000C12C1A8E1B8E1C8E1D8E1E8E1BAA1CAAD9
:100D5000B0E8BDAB8FE38EAB8BA99CA9ADA9BEA9B2
:100D60008D8B9E8BAF8BB88F19A30AA30C2D1B8D77
:100D700027E137EB41ED58E36D897E898F89988DA6
:100D80000E943E2F4B015C01A50194019C8DA2960F
:100D90009FAFA297AD8D2E96AFAF2E972E8C198355
:100DA0009A83AB832C8269817A818B819C810E949A
:100DB0006E2D6B8F7C8F8D8F9E8F27E137EB41EDF2
:100DC00058E31D83A296BFADA297BE832E968FAD2A
:100DD0002E978F8328866D817E818F8198850E94D2
:100DE0003E2F6B017C01A70196016D897E898F8959
:100DF000988D0E946D2D2B013C014D8A5E8A6F8A71
:100E0000788E27E137EB41ED58E3998D99873A8643
:100E10000B87AA8DAC8769857A858B859C850E9416
:100E20006E2D698F372E082F9A8F3F8D28A199A19B
:100E30008AA13D872E879F87888B2D853E854F858C
:100E40005889698B3A8A0B8B8A8D8C8B69897A8950
:100E50008B899C890E94DA2D87FD89CFA596CCAE1F
:100E6000DDAEEEAEFFAEA59761964CAE5DAE6EAE5A
:100E70007FAE6197A6963FADA697A7962FADA79791
:100E8000A8969FADA897A9968FADA9973FAB28AF1D
:100E900099AF8AAF2FA938AD49AD5AAD7B8D6C8D16
:100EA0009D8D8E8D7BAF6CAF9DAF8EAF6BAD7CADEE
:100EB0008DAD9EAD0E946D2D6FAF21967FAF2197B6
:100EC00022968FAF229723969FAF23972396CCAC81
:100ED000DDACEEACFFAC239720E030E0A901C70108
:100EE000B6010E94DA2D87FDF8C0C701B60127E1DF
:100EF00037EB41ED58E30E94DA2D87FD23C020E057
:100F000030E0A9016D897E898F89988D0E94DA2D44
:100F100087FD99C06D897E898F89988D27E137EB90
:100F200041ED58E30E94DA2D87FF9AC025968EADD9
:100F30009FAD2597019725969FAF8EAF2597892B5B
:100F400009F0A0CE3BA52CA59DA58EA5E2963FAFAE
:100F5000E297E3962FAFE397E4969FAFE497E59689
:100F60008FAFE597E5966CAD7DAD8EAD9FADE59706
:100F7000C458DF4F0FB6F894DEBF0FBECDBFDF9170
:100F8000CF911F910F91FF90EF90DF90CF90BF9086
:100F9000AF909F908F907F906F905F904F903F9019
:100FA0002F900895898DA6968FAFA6979A8DA796B4
:100FB0009FAFA79745CE20E030E0A9017BA56CA5A7
:100FC0009DA58EA57FA768AB99AB8AAB6FA578A9C5
:100FD00089A99AA90E94DA2D9BA587FF0CC1ACA50F
:100FE0001DA50EA59D8BA98F2BED3FE049EC50E48C
:100FF0002D88398C412E502EC201B1010E946E2DD8
:101000006D8B798F182F092F20E030E0A901762F02
:10101000698DC801C72ED62EE92EF82EC701B6015C
:101020000E94DA2D87FDE0CFCF8ED8A26D962CAE30
:101030003DAE4EAE5FAE6D97A196CCAEDDAEEEAEE0
:10104000FFAEA19768CE6D897E898F89988D905863
:1010500027E137EB41ED58E30E94DA2D87FD66CF9B
:101060002D893E894F89588DC701B6010E94DF2D19
:10107000698F7D8B182F092FA98D2696AFAF2697E4
:10108000BD892796BFAF279728961FAF2897299627
:101090000FAF299729962CAD3DAD4EAD5FAD299789
:1010A0007BA56CA59DA58EA52A967FAF2A972B962A
:1010B0006FAF2B972C969FAF2C972D968FAF2D97B8
:1010C0002D966CAD7DAD8EAD9FAD2D970E946D2D93
:1010D0006BA77CA78DA79EA729CFC701B601905803
:1010E00006CFA6963FADA697A7962FADA797A89631
:1010F0009FADA897A9968FADA997AA963FAFAA973B
:10110000AB962FAFAB97AC969FAFAC97AD968FAF2A
:10111000AD97AD962CAD3DAD4EAD5FADAD9760E0FA
:1011200070E0CB010E946D2D698F7D8B182F092FE8
:1011300020E030E0A901AE966FAFAE97AF967FAFDB
:10114000AF97E0968FAFE097E1969FAFE197E1967A
:101150006CAD7DAD8EAD9FADE1970E94DA2D87FD20
:101160001DC027E137EB41ED58E3898DE6968FAF3F
:10117000E6979D89E7969FAFE797E8961FAFE897B8
:10118000E9960FAFE997E9966CAD7DAD8EAD9FAD59
:10119000E9970E94DA2D87FF6FCFD4CE27E137EB96
:1011A00041ED58EBA98DEA96AFAFEA97BD89EB9672
:1011B000BFAFEB97EC961FAFEC97ED960FAFED97A7
:1011C000ED966CAD7DAD8EAD9FADED970E94392F44
:1011D00018160CF051CFB6CEA6961FAEA697A796BE
:1011E0001FAEA797A0E8A896AFAFA897BFEBA996A8
:1011F000BFAFA9972BCD9F8FACA5A8A31DA50EA50A
:101200008ACD8F929F92AF92BF92CF92DF92EF9250
:10121000FF920F931F938B019C01C901B8010E949B
:10122000D8054B015C01A50194016BED7FE089ECD1
:101230009FE30E946D2D6B017C01C701B6011F91D8
:101240000F91FF90EF90DF90CF90BF90AF909F9065
:101250008F9008952F923F924F925F926F927F925C
:101260008F929F92AF92BF92CF92DF92EF92FF92B6
:101270000F931F93CF93DF93CDB7DEB7CC5AD1092D
:101280000FB6F894DEBF0FBECDBFCF55DF4F6883DA
:10129000C15AD040CE55DF4F7883C25AD040CD5589
:1012A000DF4F8883C35AD040CC55DF4F9883C45A50
:1012B000D04020E030E0A9016B017C01C701B601FC
:1012C0000E94DA2D87FDAAC427E137EB41ED58E3F0
:1012D000CF55DF4F8881C15AD04089A3CE55DF4F0B
:1012E0009881C25AD0409AA3CD55DF4FA881C35AE6
:1012F000D040ABA3CC55DF4FB881C45AD040BCA37B
:1013000069A17AA18BA19CA10E94DA2D87FDC5C39A
:1013100020E030E0A901CF55DF4F8881C15AD0408D
:1013200022968FAF2297CE55DF4F9881C25AD04078
:1013300023969FAF2397CD55DF4FA881C35AD04046
:101340002496AFAF2497CC55DF4FB881C45AD04014
:101350002596BFAF259725966CAD7DAD8EAD9FAD23
:1013600025970E94392F18160CF055C020E030E068
:1013700040E85FE3CF55DF4F8881C15AD0402696C1
:101380008FAF2697CE55DF4F9881C25AD04027960F
:101390009FAF2797CD55DF4FA881C35AD0402896DD
:1013A000AFAF2897CC55DF4FB881C45AD0402996AB
:1013B000BFAF299729966CAD7DAD8EAD9FAD2997B6
:1013C0000E946D2D2A966FAF2A972B967FAF2B9791
:1013D0002C968FAF2C972D969FAF2D972D96CCAC3A
:1013E000DDACEEACFFAC2D9720E030E0A901C701E9
:1013F000B6010E94DA2D87FF04C0F7FAF094F7F8DF
:10140000F09427E137EB41ED58E3C701B6010E94A4
:10141000DA2D87FD89C4CF55DF4F8881C15AD0406E
:101420008DA3CE55DF4F9881C25AD0409EA3CD5593
:10143000DF4FA881C35AD040AFA3CC55DF4FB8814E
:10144000C45AD040B8A72DA13EA14FA158A589A745
:101450009AA7ABA7BCA769A57AA58BA59CA50E9456
:101460003E2F20E030E040E85FE36DA77EA78FA726
:1014700098AB6DA57EA58FA598A90E946E2DD62E3E
:10148000C72E1C01162F7DAF8DA7032D8AE0E82EF5
:10149000F12C29A23DA249A65AA66BA67CA6812EB4
:1014A0009DACADA4B02EA5019401B60199A18DA16A
:1014B0007D8BCE8A9F8B888F6D897E898F89988D51
:1014C0000E94DF2D212E392C4A2C502EA201910191
:1014D000698F7A8F8B8F9C8F698D7A8D8B8D9C8D88
:1014E0000E946E2D20E030E040E05FE36D8F7E8F44
:1014F0008F8F98A36D8D7E8D8F8D98A10E943E2F2A
:10150000162F7DAF8DA7092F81E0E81AF10839F673
:1015100049A45AA46BA47CA420E030E040E85FE337
:101520006DAD9DA519AB6AAB9BAB0CAB69A97AA954
:101530008BA99CA90E946E2D6DAB7EAB8FAB98AF33
:101540002DA93EA94FA958ADCF55DF4F9881C15A5B
:10155000D04099AFCE55DF4FA881C25AD040AAAF34
:10156000CD55DF4FB881C35AD040BBAFCC55DF4F0C
:101570008881C45AD0408CAF69AD7AAD8BAD9CAD3B
:101580000E94DF2D22966FAF229726967FAF269777
:101590002A968FAF2A972E969FAF2E97A2E3B0E0A0
:1015A000CF57DF4FB983A883C158D040C757DF4F0B
:1015B000488259826A827B82C958D0402BED3FE035
:1015C00049EC50E422967FAD229726966FAD269780
:1015D0002A969FAD2A972E968FAD2E9766967FAF4F
:1015E000669767966FAF679768969FAF689769969B
:1015F0008FAF699769966CAD7DAD8EAD9FAD6997E4
:101600000E94392F87FD97C22296BFAD229726965A
:101610008FAD26972A961FAD2A972E960FAD2E973F
:10162000BD8B898F2BED3FE049EC50E42D88398C40
:10163000412E502EC201B1010E946D2D6D8B798F0C
:10164000182F092F2BED3FE049EC50E4762F698DE0
:10165000C801C72ED62EE92EF82EC701B6010E946A
:10166000392F87FFDFCFC9AADDAAC357DF4F2882F2
:1016700039824A825B82CD58D040CF56DF4FC88234
:10168000D982EA82FB82C159D04020E030E0A90132
:1016900079A96DA9C80162967FAF629763966FAF13
:1016A000639764969FAF649765960FAF659765964D
:1016B0006CAD7DAD8EAD9FAD65970E94392F18162C
:1016C0000CF0A7C2198E1D8E312CC12C19A21DA29F
:1016D00019A61DA680E090E0A0E8BFE38D8B9E8B4D
:1016E000AF8BB88F19AF0DAF0C2D19A127E137EBD8
:1016F00041ED58E36D897E898F89988D0E943E2F38
:101700004B015C01A50194019DA1C356DF4F988355
:10171000CD59D040A9A5C757DF4FA883C958D0409D
:101720002DA419839A83AB832C8269817A818B8162
:101730009C810E946E2D69A37DA389A79DA727E1A7
:1017400037EB41ED58E31D83C356DF4FB881CD59C8
:10175000D040BE83C757DF4F8881C958D0408F83A0
:1017600028866D817E818F8198850E943E2F6B0136
:101770007C01A70196016D897E898F89988D0E94D1
:101780006D2D2B013C014D8A5E8A6F8A788E27E190
:1017900037EB41ED58E3998D9987AD8DAA873B864C
:1017A0000C8769857A858B859C850E946E2D698F53
:1017B0007D8F382E092F39A92DA999AD8DAD3D8783
:1017C0002E879F87888B2D853E854F855889698B0D
:1017D0007A8B3B8A0C8B69897A898B899C890E94D8
:1017E000DA2D87FD82CFC356DF4FC882D982EA82C5
:1017F000FB82CD59D040C757DF4F488259826A8259
:101800007B82C958D04020E030E0A901C301B20179
:101810000E94DA2D87FDF5C16D897E898F89988DAB
:1018200027E137EB41ED58E30E94DA2D87FD24C113
:101830002D893E894F89588D79A16DA199A58DA5D6
:10184000CB57DF4F7883C558D040CA57DF4F6883E6
:10185000C658D040C957DF4F9883C758D040C857A3
:10186000DF4F8883C858D040CB57DF4F68817981DC
:101870008A819B81C558D0400E94DF2D8B01898FC2
:101880009D8BCF55DF4F9881C15AD0406E969FAF48
:101890006E97CE55DF4FA881C25AD0406F96AFAF3A
:1018A0006F97CD55DF4FB881C35AD040A096BFAFD8
:1018B000A097CC55DF4F8881C45AD040A1968FAFF6
:1018C000A197A1962CAD3DAD4EAD5FADA197A2966F
:1018D0000FAFA297A3961FAFA397998DA4969FAF22
:1018E000A497AD89A596AFAFA597A5966CAD7DAD34
:1018F0008EAD9FADA5970E946D2DA6966FAFA69752
:10190000A7967FAFA797A8968FAFA897A9969FAFE6
:10191000A997A996CCACDDACEEACFFACA99720E0C2
:1019200030E0A901C701B6010E94DA2D87FD6DC123
:10193000C701B60127E137EB41ED58E30E94DA2DEC
:1019400087FDB7C0AA960FAFAA97AB961FAFAB970C
:10195000B98DAC96BFAFAC978D89AD968FAFAD9773
:10196000AD962CAD3DAD4EAD5FADAD97AE960FAF24
:10197000AE97AF961FAFAF97E096BFAFE097E196F7
:101980008FAFE197E1966CAD7DAD8EAD9FADE197E8
:101990000E943E2F20E030E040E85FE3E2966FAF28
:1019A000E297E3967FAFE397E4968FAFE497E596EF
:1019B0009FAFE597E5966CAD7DAD8EAD9FADE5979C
:1019C0000E946E2DE6966FAFE697E7967FAFE7979A
:1019D000E8968FAFE897E9969FAFE997E9962CAD27
:1019E0003DAD4EAD5FADE997C701B6010E94DF2D59
:1019F000EA966FAFEA97EB967FAFEB97EC968FAFD7
:101A0000EC97ED969FAFED97ED962CAD3DAD4EADBD
:101A10005FADED9722967FAD229726966FAD269704
:101A20002A969FAD2A972E968FAD2E97EE967FAF72
:101A3000EE97EF966FAFEF97C158DF4F9883CF5770
:101A4000D040C058DF4F8883C058D040C358DF4FC4
:101A5000688179818A819B81CD57D0400E946D2D0C
:101A600022966FAF229726967FAF26972A968FAF42
:101A70002A972E969FAF2E97CF57DF4FA881B98117
:101A8000C158D0401197CF57DF4FB983A883C158B1
:101A9000D040AB2B09F092CD0CC022961FAE2297FE
:101AA00026961FAE26972A961FAE2A972E961FAE11
:101AB0002E9722963FAD229726962FAD26972A96EF
:101AC0009FAD2A972E968FAD2E97CB55DF4F38833B
:101AD000C55AD040CA55DF4F2883C65AD040C95591
:101AE000DF4F9883C75AD040C855DF4F8883C85A04
:101AF000D040CB55DF4F688179818A819B81C55A5F
:101B0000D040C455DF4F0FB6F894DEBF0FBECDBF37
:101B1000DF91CF911F910F91FF90EF90DF90CF90C9
:101B2000BF90AF909F908F907F906F905F904F90FD
:101B30003F902F90089520E030E0A90122967FADDC
:101B4000229726966FAD26972A969FAD2A972E96B6
:101B50008FAD2E976A967FAF6A976B966FAF6B9734
:101B60006C969FAF6C976D968FAF6D976D966CADC1
:101B70007DAD8EAD9FAD6D970E94DA2D2296BFADE3
:101B8000229787FFE2C026968FAD26972A961FAD33
:101B90002A972E960FAD2E97BD8B898F2BED3FE0A8
:101BA00049EC50E42D88398C412E502EC201B101F0
:101BB0000E946E2D6D8B798F182F092F20E030E059
:101BC000A901762F698DC801C72ED62EE92EF82ED1
:101BD000C701B6010E94DA2D87FDE0CFC9AADDAAB0
:101BE000CB56DF4F288239824A825B82C559D0406A
:101BF000C756DF4FC882D982EA82FB82C959D040DA
:101C000044CDC301B20190580BCEC701B601905824
:101C100091CE00E010E0198E1D8A33CE27E137EB1C
:101C200041ED58EBCDAEDEAEEFAE2196FFAE219783
:101C300021966CAD7DAD8EAD9FAD21970E94392F61
:101C400018160CF42ACF20E030E040E85FE3CF55CF
:101C5000DF4F8881C15AD0402E968FAF2E97CE5538
:101C6000DF4F9881C25AD0402F969FAF2F97CD5506
:101C7000DF4FA881C35AD0406096AFAF6097CC5574
:101C8000DF4FB881C45AD0406196BFAF619761966B
:101C90006CAD7DAD8EAD9FAD61970E946E2DCF571F
:101CA000DF4F6883C158D040CE57DF4F7883C2588A
:101CB000D040CD57DF4F8883C358D040CC57DF4F3B
:101CC0009883C458D040CF57DF4FC880D980EA806E
:101CD000FB80C158D04020E030E0A901C701B60127
:101CE0000E94DA2D87FD1BC027E137EB41ED58E359
:101CF000C701B6010E94DA2D87FF8DCBBBED22967E
:101D0000BFAF22978FE026968FAF269799E42A9649
:101D10009FAF2A97AFEB2E96AFAF2E97CACEF7FAAA
:101D2000F094F7F8F094E0CFBBED2296BFAF229786
:101D30008FE026968FAF269799E42A969FAF2A9731
:101D4000AFE32E96AFAF2E97B4CEB9AB26968FAD3C
:101D500026978DAB2A961FAD2A972E960FAD2E97FC
:101D600094CC2F923F924F925F926F927F928F927C
:101D70009F92AF92BF92CF92DF92EF92FF920F931A
:101D80001F93CF93DF93CDB7DEB7E8970FB6F894E4
:101D9000DEBF0FBECDBFF62EE72ED82EC92E20E017
:101DA00030E0A9016D8F7E8F8F8F98A36D8D7E8D12
:101DB0008F8D98A10E94DA2D18160CF0E8C020E053
:101DC00030E040E85FE3FDA2EEA2DFA2C8A66DA16D
:101DD0007EA18FA198A50E94392F20E030E040E835
:101DE0005FE387FD82C0F9A6EAA6DBA6CCA669A5BB
:101DF0007AA58BA59CA50E94392F18160CF0CEC091
:101E0000812C912C80E8A82E9FE3B92E00E010E0F1
:101E10001DA21D8EF98AED8A2D2C3C2C89829A8276
:101E2000AB82BC8229813A814B815C816FE672E191
:101E300083E89AE30E94DF2D6B017C01A7019601E4
:101E40000D831E838DA18F838D8D88876D817E810B
:101E50008F8198850E946E2D8B018DA39D8F2FE61B
:101E600032E143E85AE389869A86AB86BC86698567
:101E70007A858B859C850E946E2D4B015C012B0120
:101E80003C01A301920189898D878D898E872F86D8
:101E9000388A6D857E858F8598890E94392F18161E
:101EA0000CF4BCCF09A31AA38DA18BA38D8D8CA399
:101EB00069A17AA18BA19CA1E8960FB6F894DEBF28
:101EC0000FBECDBFDF91CF911F910F91FF90EF908B
:101ED000DF90CF90BF90AF909F908F907F906F904A
:101EE0005F904F903F902F900895FDA6EEA6DFA63D
:101EF000C8AA6DA57EA58FA598A90E94DA2D00E03D
:101F000010E01DA21D8E87FFCDCF8F2C9E2CAD2CF7
:101F1000BC2CA50194016FE672E183E89AE30E946C
:101F2000DF2D2B013C01A3019201098B1A8B8DA19E
:101F30008B8B8D8D8C8B69897A898B899C890E948A
:101F40006D2D8B018DA39D8F2FE632E143E85AE37F
:101F5000FD8AEE8ADF8AC88E6D897E898F89988D89
:101F60000E946E2DF62EE72ED82EC92E20E030E0EE
:101F700040E85FE3698F7A8F8B8F9C8F698D7A8DB4
:101F80008B8D9C8D0E94DA2D87FDBFCF8BCF00E813
:101F90001FE483EC8DA387EC8D8F84CF00E010E0ED
:101FA0001DA21D8E7FCF2F923F924F925F926F9214
:101FB0007F928F929F92AF92BF92CF92DF92EF92D9
:101FC000FF920F931F93CF93DF93CDB7DEB7C45526
:101FD000D1090FB6F894DEBF0FBECDBFF62EE72EA7
:101FE000D82EC92E20E030E0A90169A77AA78BA7D7
:101FF0009CA769A57AA58BA59CA50E94DA2D181629
:102000000CF07CC120E030E040E85FE3F9AEEAAEDE
:10201000DBAECCAE69AD7AAD8BAD9CAD0E94392FF5
:1020200020E030E040E85FE387FD02C1FDAEEEAEA8
:10203000DFAE2196CFAE219721966CAD7DAD8EADF2
:102040009FAD21970E94392F00E010E022961FAE2D
:10205000229718160CF05BC1812C912C20E8A22E3F
:102060003FE3B32E80E08DAFFD8EE9A2DDA2C9A6CD
:1020700049AE5AAE6BAE7CAE14012501A2019101AE
:102080006FE672E183E89AE30E94DF2D6D877E8719
:102090008F87988B2D853E854F855889098B1A8BA4
:1020A00022968FAD22978B8B8DAD8C8B69897A8927
:1020B0008B899C890E946E2D8B0122968FAF22976F
:1020C0009DAF2FE632E143E85AE38D8A9E8AAF8ABC
:1020D000B88E6D897E898F89988D0E946E2D4B01F7
:1020E0005C016B017C01A70196018D8D898F89A10F
:1020F0008A8F8DA18B8F89A58C8F698D7A8D8B8D21
:102100009C8D0E94392F18160CF4B6CF8DAD89A77F
:10211000812C912CA12CB12CC12CD12C80E8E82E43
:102120009FE3F92E0D870B2D198B1A2D22962FACBC
:102130002297998E39A48D8A26013701A301920135
:102140006FE672E183E89AE30E94DF2D4B015C01A8
:10215000A50194018D898983898D8A831B830C83D2
:1021600069817A818B819C810E946E2D6D8B798F24
:10217000182F092F2FE632E143E85AE3CD82DE82A1
:10218000EF82F8866D817E818F8198850E946E2D09
:102190006B017C0120E030E040E251E46987DA869F
:1021A0008B87FC8669857A858B859C850E94DA2DD4
:1021B00087FDC2CF8D88998CA12EB02E0D851989EF
:1021C00022962FAE229739A68DA69EA6AFA6B8AAB4
:1021D0002DA53EA54FA558A909AB1AAB2BAA3CAA21
:1021E00069A97AA98BA99CA90E94DF2D6DAB7EAB52
:1021F0008FAB98AF6DA97EA98FA998ADCC5ADF4F50
:102200000FB6F894DEBF0FBECDBFDF91CF911F9107
:102210000F91FF90EF90DF90CF90BF90AF909F9085
:102220008F907F906F905F904F903F902F90089588
:102230002296FFAE22972396EFAE23972496DFAE29
:1022400024972596CFAE259725966CAD7DAD8EADA6
:102250009FAD25970E94DA2D00E010E022961FAE78
:10226000229719A687FF54CF4D865E866F86788A9F
:102270008F2C9E2CAD2CBC2CA50194016FE672E135
:1022800083E89AE30E94DF2D1B012C01A20191013A
:102290000D8F1E8F22968FAD22978F8F89A588A3D1
:1022A0006D8D7E8D8F8D98A10E946D2D8B01229654
:1022B0008FAF229799A72FE632E143E85AE3F9A2BC
:1022C000EAA2DBA2CCA269A17AA18BA19CA10E9467
:1022D0006E2DF62EE72ED82EC92E20E030E040E8F5
:1022E0005FE36DA37EA38FA398A76DA17EA18FA1AD
:1022F00098A50E94DA2D87FDBBCF0ACF00E81FE426
:1023000083EC22968FAF229787EC89A701CF19A67D
:10231000FFCE4F925F926F927F928F929F92AF9279
:10232000BF92CF92DF92EF92FF920F931F93CF93C2
:10233000DF93CDB7DEB7A8970FB6F894DEBF0FBE18
:10234000CDBF8B019C01098F1A8F2B8F3C8F20E012
:1023500030E0A901698D7A8D8B8D9C8D0E94392F7B
:1023600087FD76C020E030E0A901698D7A8D8B8DE4
:102370009C8D0E94392F18160CF0DBC0C12CD12C7B
:10238000E12CF12C00E010E080E8898B9FE39D8731
:102390002AE037ED43E25CE309831A83A989AB8322
:1023A000BD85BC8369817A818B819C810E943E2F8F
:1023B0002B013C01A30192010D831E8389898F8328
:1023C0009D8598876D817E818F8198850E946E2D75
:1023D0008B01898B9D872AE037ED43E25CE3C98658
:1023E000DA86EB86FC8669857A858B859C850E94DA
:1023F0006E2D6B017C014B015C01A5019401698D7F
:102400007A8D8B8D9C8D0E94392F18160CF20D8FB2
:102410001E8F99899F8FAD85A8A36D8D7E8D8F8D21
:1024200098A1A8960FB6F894DEBF0FBECDBFDF917E
:10243000CF911F910F91FF90EF90DF90CF90BF90C1
:10244000AF909F908F907F906F905F904F90089586
:10245000898D9A8DAB8DBC8DB05889839A83AB835F
:10246000BC8320E030E0A901698D7A8D8B8D9C8D35
:102470000E94DA2D87FF64C0812C912CA12CB12CF5
:1024800000E010E090E89987AFE3AD832AE037EDF4
:1024900043E25CE30D871E87B985BF878D81888BFA
:1024A0006D857E858F8598890E943E2F2B013C018A
:1024B000A3019201098B1A8B99859B8BAD81AC8B03
:1024C00069897A898B899C890E946E2D8B01898705
:1024D0009D832AE037ED43E25CE38D8A9E8AAF8AD2
:1024E000B88E6D897E898F89988D0E946E2D4B01E3
:1024F0005C016B017C01A701960169817A818B8166
:102500009C810E94392F18160CF209A31AA3B985D1
:10251000BBA38D818CA329A13AA14BA15CA160E052
:1025200070E080E89FE30E94DF2D8B01898B9D87FF
:102530006ECF00E010E0B0E8B98B8FE38D8767CFF6
:1025400000E010E090E8998BAFE3AD8760CF2F9269
:102550003F924F925F926F927F928F929F92AF9233
:10256000BF92CF92DF92EF92FF920F931F93CF9380
:10257000DF93CDB7DEB7CE56D1090FB6F894DEBFE4
:102580000FBECDBF6B017C0149015A0120E030E054
:10259000A901C501B4010E94DA2D87FD99C0C501CA
:1025A000B40127E137EB41ED58E30E94DA2D87FDB6
:1025B0009AC020E030E0A901C701B6010E94DA2DDF
:1025C00087FD76C0C701B60127E137EB41ED58E33F
:1025D0000E94DA2D87FD77C0C501B4010E94512EFB
:1025E0006DAB7EAB8FAB98AF2DA93EA9AF963FAF39
:1025F0002EAFAF97B901330F880B990B0E94892E2C
:1026000022966FAF229723967FAF239724968FAFA2
:10261000249725969FAF259725962CAD3DAD4EADC1
:102620005FAD2597C501B4010E946D2D2B013C01C2
:1026300020E030E0A901C301B2010E94DA2D87FF3A
:1026400004C077FA709477F8709427E137EB41ED86
:1026500058E3C301B2010E94DA2D87FF6AC0AF962A
:102660008EAD9FADAF9797FD60C1AF968EAD9FAD1C
:10267000AF97892BC1F1A12CB12C812C912C00E8B2
:102680001FE3B401C801A70196012B013C01C3015E
:10269000B2010E943E2F2FEFA21AB20AAF962EADC2
:1026A0003FADAF972A153B0571F74B018C011FC059
:1026B000C701B601905827E137EB41ED58E30E947E
:1026C000DA2D87FF89CF812C912C00E010E00FC01C
:1026D000C501B401905827E137EB41ED58E30E9462
:1026E000DA2D87FF66CF812C912C00E81FE38D86C1
:1026F0009E860F87188B6D857E858F859889C25938
:10270000DF4F0FB6F894DEBF0FBECDBFDF91CF9184
:102710001F910F91FF90EF90DF90CF90BF90AF90FF
:102720009F908F907F906F905F904F903F902F90F1
:10273000089520E030E0A901C701B6010E94DA2D1A
:1027400018160CF029C120E030E040E85FE3C70133
:10275000B6010E94392F20E030E040E85FE387FDBA
:1027600094C1C701B6010E94392F18160CF0BBCFD7
:1027700000E010E022961FAE22971DAA412C512C9A
:1027800080E8682E9FE3792E498A5A8A6B8A7C8A70
:1027900029893A894B895C896FE672E183E89AE37B
:1027A0000E94DF2D6D8B7E8B8F8B988F2D893E89BC
:1027B0004F89588D098F1A8F22968FAD22978B8F54
:1027C0009DA99C8F698D7A8D8B8D9C8D0E946E2D1D
:1027D0008B0122968FAF22979DAB2FE632E143E823
:1027E0005AE34D8E5E8E6F8E78A26D8D7E8D8F8DAD
:1027F00098A10E946E2D2B013C0169A35AA28BA3C4
:102800007CA229A13AA14BA15CA1C701B6010E94FB
:10281000392F18160CF4B8CF26960FAF26972796A7
:102820001FAF279722968FAD229728968FAF2897B4
:102830009DA929969FAF299729962CAD3DAD4EAD08
:102840005FAD2997C501B4010E943E2F2A966FAF54
:102850002A972B967FAF2B972C968FAF2C972D9680
:102860009FAF2D972D964CAC5DAC6EAC7FAC2D9789
:1028700020E030E0A901C301B2010E94392F87FD99
:1028800094C020E030E0A901C301B2010E94392FB9
:1028900018160CF028CFE12CF12C198E1D8A812CF2
:1028A000912C00E81FE3498A5A8A6B8A7C8A2AE0C5
:1028B00037ED43E25CE389829A820B831C83698152
:1028C0007A818B819C810E943E2F1B012C01A201E9
:1028D00091018D829E820F8318876D817E818F8109
:1028E00098850E946E2D4B018C012AE037ED43E262
:1028F0005CE3E986FA86898D8B879D899C8769854B
:102900007A858B859C850E946E2D7B01898F9D8B9E
:102910005B016C01A601950169897A898B899C8983
:102920000E94392F18161CF2E2CE2DA93EA931952E
:10293000219531093A83298300E010E060E070E0DE
:1029400080E89FE3A70196014B015C01C501B4013A
:102950000E943E2F0F5F1F4F29813A8102171307F4
:1029600089F72E966FAF2E972F967FAF2F97609691
:102970008FAF609761969FAF619761962CAD3DAD2B
:102980004EAD5FAD619760E070E080E89FE30E942C
:10299000DF2D4B018C01ABCE00E81FE423EC229627
:1029A0002FAF229737EC3DAB37CF53014201B7FA37
:1029B000B094B7F8B09420E030E0A901C301B201AF
:1029C0000E94DA2D87FF8FCEC12CD12CE12CF12C67
:1029D00000E010E020E82D833FE339832AE037ED63
:1029E00043E25CE30DA31EA38D818FA3998198A779
:1029F0006DA17EA18FA198A50E943E2F69A77AA7FD
:102A00008BA79CA729A53AA54BA55CA50DA71EA73A
:102A10008D818FA7998198AB6DA57EA58FA598A96B
:102A20000E946E2D8B018D8399832AE037ED43E25E
:102A30005CE3C9AADAAAEBAAFCAA69A97AA98BA9BC
:102A40009CA90E946E2D6B017C012B013C01A3010E
:102A50009201C501B4010E94392F18160CF4BECFA3
:102A600062960FAF629763961FAF63972D8164964E
:102A70002FAF6497398165963FAF659765962CAD0A
:102A80003DAD4EAD5FAD65977ECFC701B6010E94EB
:102A9000DA2D87FF28CE00E010E022961FAE2297A5
:102AA0001DAAA70196016FE672E183E89AE30E94EE
:102AB000DF2D69AF7AAF8BAF9CAF29AD3AAD4BAD8F
:102AC0005CAD0DAF1EAF22968FAD22978FAF9DA943
:102AD00021969FAF219721966CAD7DAD8EAD9FADB8
:102AE00021970E946D2D8B0122968FAF22979DAB6F
:102AF0002FE632E143E85AE3C701B6010E946E2D8A
:102B00002B013C017301620120E030E040E85FE30B
:102B1000C701B6010E94DA2D87FDC3CF7DCE2F926B
:102B20003F924F925F926F927F928F929F92AF925D
:102B3000BF92CF92DF92EF92FF920F931F93CF93AA
:102B4000DF93CDB7DEB7C359D2400FB6F894DEBFDE
:102B50000FBECDBF6E012FEBC21A2EEFD20A69E273
:102B600072E0C6010E941231F60101900020E9F7DF
:102B700031974F018C189D08CE16DF0609F494C5D5
:102B8000A12CB12CCB56DE4F19821882C559D140E9
:102B9000CF55DE4F19821882C15AD140E12CF12C59
:102BA0002AC0C5010396F601E80FF91F20812E35D2
:102BB00009F40FC1FE01EF5FFE4FCB56DE4F2881B7
:102BC0003981C559D140E20FF31F33E730835C01EF
:102BD000CB56DE4F48815981C559D1404F5F5F4F79
:102BE000CB56DE4F59834883C559D1407501A8148F
:102BF000B90408F052C0F601EA0DFB1D1081103235
:102C000009F428C3612F012E000C770BCB01C0976C
:102C10000A9708F423C31E3209F478C1EC0CFD1C9A
:102C200044E050E067E971E0C7010E941931892B47
:102C300009F4B7CF44E050E06CE971E0C7010E94AD
:102C40001931892B09F031C1C5010396F601E80F4E
:102C5000F91F20812E3509F4C6C0FE01EF5FFE4F3B
:102C6000CB56DE4FA881B981C559D140EA0FFB1F71
:102C7000B3E6B0835C01CB56DE4FE881F981C559DC
:102C8000D1403196CB56DE4FF983E883C559D14008
:102C90007501A814B90408F4AECFCB56DE4F2881D5
:102CA0003981C559D140121613060CF0E0C26E01ED
:102CB00031E0C30ED31ECB56DE4F08811981C559B2
:102CC000D1400C0D1D1DCF55DE4FE880F980C15A53
:102CD000D14027C08A3209F45BC38B3209F053C359
:102CE000CB57DE4F288139814A815B81C558D1405D
:102CF000CF57DE4F688179818A819B81C158D1404D
:102D00000E946E2DFE013196EE0DFF1D2B013C0140
:102D100040825182628273827501C016D10609F425
:102D2000A0C2D8018E918D018832B9F3B2E0EB16C2
:102D3000F1049CF35701E1E0AE1AB108F501EE0F82
:102D4000FF1FEE0FFF1F9E012F5F3F4FE20FF31F8C
:102D50002081318142815381CF57DE4F28833983CF
:102D60004A835B83C158D14032E0E31AF108EE0C8C
:102D7000FF1CEE0CFF1CFE013196EE0DFF1D2081A5
:102D8000318142815381CB57DE4F288339834A8377
:102D90005B83C558D1408D3209F4E2C20CF49ACF5E
:102DA0008F3209F4ABC28E3509F0EDC2CF57DE4F3A
:102DB000288139814A815B81C158D140CB57DE4F90
:102DC000688179818A819B81C558D1400E94A71270
:102DD00099CF44E050E06CE971E0C7010E941931DD
:102DE000892B09F062C047E050E066EA71E0C70154
:102DF0000E941931892B09F462C247E050E06EEA63
:102E000071E0C7010E941931892B09F4D4C247E04F
:102E100050E066EB71E0C7010E941931892B09F47B
:102E2000E4C344E050E06EEB71E0C7010E94193149
:102E3000892B09F4DFC244E050E063EC71E0C70184
:102E40000E941931892B09F40FC4D7018C918C365B
:102E500009F005C311968C9111978E3609F0FFC2C7
:102E600012968C91883209F0FAC23E01B1E06B0EE5
:102E70007B1ECB56DE4FE881F981C559D140E60D66
:102E8000F71D8CE68083E2E0AE0EB11CCB56DE4F20
:102E900028813981C559D1402F5F3F4FCB56DE4F36
:102EA00039832883C559D140A1CE44E050E061EA7E
:102EB00071E0C7010E941931892B09F094CFC50137
:102EC0000396F601E80FF91F20812E3509F48BCF08
:102ED0003E01F1E06F0E7F1ECB56DE4FE881F98197
:102EE000C559D140E60DF71D24E720835C01CB5680
:102EF000DE4F28813981C559D1402F5F3F4FCB56D6
:102F0000DE4F39832883C559D14070CEC501019663
:102F10008815990508F082CEF601E80FF91F208187
:102F2000022E000C330B205331092A30310508F0F2
:102F300075CEF601E80FF91FC357DE4FF983E8831A
:102F4000CD58D140CF56DE4F1882C159D140CE5610
:102F5000DE4F1882C259D140212C312C412C512CEA
:102F6000C155DE4FD982C882CF5AD140D42CCD561C
:102F7000DE4F5882C359D14026C01E3209F0A9C085
:102F8000B1E0CF56DE4FB883C159D140CE56DE4FA7
:102F90001882C259D140EFEFAE1ABE0AA814B90484
:102FA00008F097C0C357DE4FA881B981CD58D140F2
:102FB0001D91C357DE4FB983A883CD58D140612FEF
:102FC000012E000C770B605371096A307105A8F669
:102FD000072E000C880B990B0E94892E7B018C0117
:102FE000CF56DE4F48815981C159D140452B09F058
:102FF000BBC020E030E040E251E4CD56DE4F888196
:10300000C359D140CF57DE4F5882C158D140CE5717
:10301000DE4F4882C258D140CD57DE4FD882C358C8
:10302000D140CC57DE4F8883C458D140CF57DE4FB4
:10303000688179818A819B81C158D1400E943E2F4D
:10304000CB57DE4FE882C558D140CA57DE4FF882D1
:10305000C658D140C957DE4F0883C758D140C8571A
:10306000DE4F1883C858D140CB57DE4F28813981B5
:103070004A815B81C558D140C757DE4F6883C95824
:10308000D140C657DE4F7883CA58D140C557DE4F6E
:103090008883CB58D140C457DE4F9883CC58D14059
:1030A000C757DE4F688179818A819B81C958D14099
:1030B0000E946E2D562E472ED82ECD56DE4F988369
:1030C000C359D140EFEFAE1ABE0AA814B90408F4F0
:1030D00069CFF52C042D4D2CC155DE4FC880D98009
:1030E000CF5AD140CD56DE4F5880C359D140CF552D
:1030F000DE4FE881F981C15AD140EE0FFF1FEE0F7C
:10310000FF1F9E012F5F3F4FE20FF31FCD55DE4F94
:10311000F882C35AD140CC55DE4F0883C45AD140FF
:10312000CB55DE4F4882C55AD140CA55DE4F588232
:10313000C65AD140CD55DE4F88819981AA81BB8185
:10314000C35AD14080839183A283B383CF55DE4F8E
:10315000A881B981C15AD1401196CF55DE4FB983AC
:10316000A883C15AD14042CDC1010196C955DE4F55
:1031700099838883C75AD140612C712CB701802F65
:103180000D2D912F20E030E040E251E46B017C01F5
:10319000C701B6010E94DF2D9301AFEF6A1A7A0AC8
:1031A0002216330679F7C555DE4FC882D982EA82E6
:1031B000FB82CB5AD1407B01C756DE4F6883C95989
:1031C000D140C656DE4FF882CA59D140C556DE4FAF
:1031D0008883CB59D140C456DE4F9883CC59D14017
:1031E000C756DE4F288139814A815B81C959D14058
:1031F000CD56DE4F8881C359D140C356DE4F588229
:10320000CD59D140C256DE4F4882CE59D140C15629
:10321000DE4F0883CF59D140C056DE4F8883C05A55
:10322000D140C356DE4F688179818A819B81CD5917
:10323000D1400E946E2D562E472ED82ECD56DE4FF1
:103240009883C359D140C955DE4F28803980C75A69
:10325000D140A1CE3FEFA31AB30AC8CCC501019655
:1032600068CECF55DE4FF982E882C15AD140CF55A2
:10327000DE4F48815981C15AD140141615060CF011
:1032800013C269817A818B819C81CD56DD4F0FB647
:10329000F894DEBF0FBECDBFDF91CF911F910F918C
:1032A000FF90EF90DF90CF90BF90AF909F908F9066
:1032B0007F906F905F904F903F902F9008953E01C8
:1032C00031E0630E731ECB56DE4FE881F981C5599C
:1032D000D140E60DF71D81E6808346E0A40EB11CC7
:1032E000CB56DE4F88819981C559D1400196CB5686
:1032F000DE4F99838883C559D14078CC20E030E0F7
:10330000A901CF57DE4F688179818A819B81C1589D
:10331000D1400E94DA2D87FD8CC0CF57DE4F6881E7
:1033200079818A819B81C158D14027E137EB41EDFA
:1033300058E30E94DA2D87FD8DC0CF57DE4F2881DC
:1033400039814A815B81C158D140CB57DE4F6881BA
:1033500079818A819B81C558D1400E94DF2DD2CCD2
:10336000CF57DE4F288139814A815B81C158D140D6
:10337000CB57DE4F688179818A819B81C558D140C6
:103380000E946D2DBFCC60E070E080E090E0BACC90
:10339000CB57DE4F288139814A815B81C558D140A6
:1033A000CF57DE4F688179818A819B81C158D14096
:1033B0000E943E2FA7CC3E0191E0690E791ECB56AC
:1033C000DE4FE881F981C559D140E60DF71D82E64F
:1033D0008083A6E0AA0EB11CCB56DE4FE881F981AE
:1033E000C559D1403196CB56DE4FF983E883C55994
:1033F000D140FCCB3E0151E0650E751ECB56DE4F31
:10340000E881F981C559D140E60DF71D81E7808338
:1034100083E0A80EB11CCB56DE4FA881B981C559F7
:10342000D1401196CB56DE4FB983A883C559D14000
:10343000DDCBCF57DE4F688179818A819B81C1586E
:10344000D140905827E137EB41ED58E30E94DA2D47
:1034500087FF73CF60E87FE483EC97E453CC44E0CC
:1034600050E068EC71E0C7010E941931892B09F422
:10347000DCC09FEFA91AB90A183209F436C2193212
:1034800009F488C210330CF0FAC11A320CF4AECB36
:1034900096ED910F8BE201C086959A95EAF780FF31
:1034A000A5CBCB56DE4FE881F981C559D1401E1618
:1034B0001F0614F00C9472263E01F1E06F0E7F1E81
:1034C000CB56DE4F28813981C559D140260D371D95
:1034D000CD56DE4F39832883C359D140CF55DE4FB7
:1034E00048805980C15AD14031E0431A5108CF5524
:1034F000DE4F48815981C15AD14042505109C357CA
:10350000DE4F59834883CD58D140CF55DE4FE880F8
:10351000F980C15AD14051E0E51A50ECF50AEE0CA1
:10352000FF1CEE0CFF1CCE010196E80EF91E86ED85
:10353000810F90E0DC01A25EBE4FC754DE4FB9831D
:10354000A883C95BD140C155DE4FD982C882CF5A0A
:10355000D140D12ECB56DE4F08811981C559D140BB
:10356000F2013196CF55DE4FF983E883C15AD1403D
:10357000980101501109CD56DE4FA881B981C35978
:10358000D1408E91CD56DE4FB983A883C359D14027
:103590008832B9F0E6EDE80FFEE5DF1609F41BC14D
:1035A000C754DE4FA881B981C95BD1409C91EB34EF
:1035B00008F03DC1F0E0E25EFE4F408149170CF09B
:1035C00077C01D2DC155DE4FC880D980CF5AD1405C
:1035D000F9013196CB56DE4FF983E883C559D140C6
:1035E000260D371DF901108301CB3E01F1E06F0E6E
:1035F0007F1ECB56DE4FE881F981C559D140E60DDB
:10360000F71D84E6808326E0A20EB11CCB56DE4F68
:1036100048815981C559D1404F5F5F4FCB56DE4F2E
:1036200059834883C559D140E1CA3E0131E0630E58
:10363000731ECB56DE4FE881F981C559D140E60DA6
:10364000F71D87E6808343E0A40EB11CCB56DE4F06
:1036500088819981C559D1400196CB56DE4F998317
:103660008883C559D140C2CA3E01B1E06B0E7B1EB2
:10367000CB56DE4FE881F981C559D140E60DF71DE3
:1036800085E68083E3E0AE0EB11CCB56DE4F288189
:103690003981C559D1402F5F3F4FCB56DE4F39831B
:1036A0002883C559D140A2CA60E070E0CB01EDCDBE
:1036B000CF55DE4F59824882C15AD140D7012D9152
:1036C0003D914D915C911397CB56DE4F2883398302
:1036D0004A835B83C559D1405E914E913E912E91B4
:1036E0007D01C955DE4F288339834A835B83C75ADE
:1036F000D1408D3209F42CC10CF080C08A3209F41B
:1037000014C18B3209F00CC1C955DE4F28813981B3
:103710004A815B81C75AD140CB56DE4F688179819F
:103720008A819B81C559D1400E946E2DC357DE4FBF
:10373000E881F981CD58D140EE0FFF1FEE0FFF1F3A
:103740009E012F5F3F4FE20FF31FCB54DE4F688384
:10375000C55BD140CA54DE4F7883C65BD140C954A3
:10376000DE4F8883C75BD140C854DE4F9883C85B67
:10377000D140CB54DE4F88819981AA81BB81C55B42
:10378000D14080839183A283B38391E0491A510889
:10379000C357DE4FA881B981CD58D1401197C35787
:1037A000DE4FB983A883CD58D1400115110509F02A
:1037B000D7CE1D2DC155DE4FC880D980CF5AD140FC
:1037C00020E030E0A1E0B0E0CB56DE4FB983A88323
:1037D000C559D14005CFEB34D8F11D2DC155DE4F71
:1037E000C880D980CF5AD140A9014F5F5F4FCB56D7
:1037F000DE4F59834883C559D140F2CE8F3209F448
:1038000042C08E3509F08CC0CB56DE4F28813981FD
:103810004A815B81C559D140C955DE4F68817981A4
:103820008A819B81C75AD1400E94A7127FCF191667
:103830000CF4C7CECF55DE4F59824882C15AD140D1
:1038400060E070E080E090E0D70114977D016ECFDA
:10385000F0E0E25EFE4F908194300CF029CF1D2DF8
:10386000C155DE4FC880D980CF5AD140C9010196D9
:10387000CB56DE4F99838883C559D140B1CE1E35D2
:1038800009F0B4C90ECE20E030E0A901CB56DE4FDE
:10389000688179818A819B81C559D1400E94DA2D46
:1038A00087FD6EC0CB56DE4F688179818A819B810E
:1038B000C559D14027E137EB41ED58E30E94DA2D9D
:1038C00087FD59C0CB56DE4F288139814A815B8103
:1038D000C559D140C955DE4F688179818A819B8164
:1038E000C75AD1400E94DF2D21CF3E01A1E06A0ED0
:1038F0007A1ECB56DE4FE881F981C559D140E60DDD
:10390000F71D1083CB56DE4FE881F981C559D140B0
:103910003196CB56DE4FF983E883C559D14066C94D
:1039200060E070E080E090E001CFC955DE4F288173
:1039300039814A815B81C75AD140CB56DE4F6881BD
:1039400079818A819B81C559D1400E943E2FEECE5C
:10395000CB56DE4F288139814A815B81C559D140E0
:10396000C955DE4F688179818A819B81C75AD140D0
:103970000E946D2DDBCE60E87FE483EC97E4D6CE29
:10398000CB56DE4F688179818A819B81C559D140B0
:10399000905890CFCB56DE4F28813981C559D14000
:1039A000121613060CF022C93E0131E0630E731E9D
:1039B000CB56DE4F48815981C559D140460D571D20
:1039C000CD56DE4F59834883C359D140C059DD4F8E
:1039D000B982A882C057D240CE58DD4F99828882E2
:1039E000C257D240CC58DD4F39822882C457D240CA
:1039F000CA58DD4FD982C882C657D24078C08336B4
:103A000009F467C2843709F4E3C3813609F451C568
:103A1000823609F4BFC5843609F4B1C78C3609F47F
:103A2000DCC6873609F4B4C7813709F4A4C68536E5
:103A300009F4DBC5CF55DE4FE880F980C15AD1408B
:103A400092E0E91AF108EE0CFF1CEE0CFF1CFE01DF
:103A50003196EE0DFF1D80809180A280B3808D3263
:103A600011F40C94962614F00C94A6268A3211F4C4
:103A70000C949E268B3211F00C949026A301920197
:103A8000C501B4010E946E2DFE013196EE0DFF1DA1
:103A9000C459DD4F6883CC56D240C359DD4F78837B
:103AA000CD56D240C259DD4F8883CE56D240C1593F
:103AB000DD4F9883CF56D240C459DD4F28813981DC
:103AC0004A815B81CC56D240208331834283538329
:103AD000CF55DE4F19830883C15AD140CB56DE4FF4
:103AE00048815981C559D140452B09F4EBC4CB56C7
:103AF000DE4F28813981C559D140C9010197CB5684
:103B0000DE4F99838883C559D140CD56DE4FA881B9
:103B1000B981C359D1408E91CD56DE4FB983A88368
:103B2000C359D140883209F4CDC4CF55DE4F088146
:103B30001981C15AD14001501109D801AA0FBB1FE8
:103B4000AA0FBB1FC955DE4FB983A883C75AD140FE
:103B5000FE013196EA0FFB1F408051806280738026
:103B6000833709F04CCF2BED3FE049EC50E4C30123
:103B7000B2010E94392F87FD09C62BED3FE049ECC9
:103B800050E4C301B2010E946D2D6B017C0126013E
:103B900037012BED3FE049EC50E4C301B2010E9434
:103BA000392F87FFEACFC858DD4FC882D982EA8211
:103BB000FB82C857D24020E030E0A901C301B20126
:103BC0000E94392F181614F00C948B26C754DE4F20
:103BD0001882C95BD140C154DE4F1882CF5BD140FF
:103BE000F12CE12CB12CD12C10E000E0312C912CE7
:103BF000B0E8C357DE4FB883CD58D140EFE3C1558D
:103C0000DE4FE883CF5AD14027E137EB41ED58E34F
:103C1000C054DE4F3882C05CD140CF53DE4F988213
:103C2000C15CD140C357DE4FF881CD58D140CE534F
:103C3000DE4FF883C25CD140C155DE4F8881CF5A38
:103C4000D140CD53DE4F8883C35CD140C054DE4F9A
:103C5000688179818A819B81C05CD1400E943E2F1E
:103C6000CC53DE4F6883C45CD140CB53DE4F7883A6
:103C7000C55CD140CA53DE4F8883C65CD140C9536E
:103C8000DE4F9883C75CD140CC53DE4F2881398109
:103C90004A815B81C45CD1402B2C8D2CA12EC02E7F
:103CA000C853DE4FB882C85CD140C753DE4FD882BC
:103CB000C95CD140C653DE4F1883CA5CD140C5539E
:103CC000DE4F0883CB5CD140C853DE4F68817981D9
:103CD0008A819B81C85CD1400E946E2DB62ED72E62
:103CE000182F092F27E137EB41ED58E3C453DE4F7E
:103CF0002882CC5CD140C353DE4F8882CD5CD1405A
:103D0000C253DE4FA882CE5CD140C153DE4FC88281
:103D1000CF5CD140C453DE4F688179818A819B8119
:103D2000CC5CD1400E943E2FC053DE4F6883C05D03
:103D3000D140CF52DE4F7883C15DD140CE52DE4FAD
:103D40008883C25DD140CD52DE4F9883C35DD140A0
:103D5000C053DE4F288139814A815B81C05DD140EB
:103D6000CC52DE4F3882C45DD140CB52DE4F9882B8
:103D7000C55DD140C357DE4F9881CD58D140CA525E
:103D8000DE4F9883C65DD140C155DE4FA881CF5A22
:103D9000D140C952DE4FA883C75DD140CC52DE4F1F
:103DA000688179818A819B81C45DD1400E946D2D9B
:103DB000362E972EC357DE4F8883CD58D140C1553C
:103DC000DE4F9883CF5AD14027E137EB41ED58E3DE
:103DD000C754DE4FB881C95BD140C852DE4FB883AB
:103DE000C85DD140C154DE4FE881CF5BD140C7529E
:103DF000DE4FE883C95DD140C652DE4FF882CA5D0E
:103E0000D140C552DE4FE882CB5DD140C852DE4F73
:103E1000688179818A819B81C85DD1400E946E2D25
:103E2000C754DE4F6883C95BD140C154DE4F7883ED
:103E3000CF5BD140F82EE92EA3019201C452DE4F90
:103E40006883CC5DD140C352DE4F7883CD5DD140D5
:103E5000C252DE4F8883CE5DD140C152DE4F98837F
:103E6000CF5DD140C452DE4F688179818A819B81C8
:103E7000CC5DD1400E94DA2D87FDC6CEFE01319681
:103E8000C955DE4F48815981C75AD140E40FF51F0B
:103E9000C554DE4FB882CB5BD140C454DE4FD882CC
:103EA000CC5BD140C354DE4F1883CD5BD140C254AC
:103EB000DE4F0883CE5BD140C554DE4F88819981A7
:103EC000AA81BB81CB5BD14080839183A283B383E2
:103ED00005CE2BED3FE049EC50E4C301B2010E9456
:103EE000392F87FD30C32BED3FE049EC50E4C3018F
:103EF000B2010E946D2D6B017C01260137012BED73
:103F00003FE049EC50E4C301B2010E94392F87FF22
:103F1000EACFC058DD4FC882D982EA82FB82C058FE
:103F2000D24020E030E0A901C301B2010E94392F44
:103F300018160CF0D2C6A12C812C312C912CC35711
:103F4000DE4F1882CD58D140C155DE4F1882CF5A6E
:103F5000D140C754DE4F1882C95BD140C154DE4FF7
:103F60001882CF5BD140B12CD12C10E80FE3FB2C91
:103F7000ED2CC357DE4FB880CD58D140C155DE4F30
:103F8000C880CF5AD140C754DE4FD880C95BD140DA
:103F900027E137EB41ED58E3C052DE4FF882C05EB7
:103FA000D140CF51DE4FE882C15ED140CE51DE4FCD
:103FB0001883C25ED140CD51DE4F0883C35ED1402D
:103FC000C052DE4F688179818A819B81C05ED14079
:103FD0000E943E2FCC51DE4F6883C45ED140CB514E
:103FE000DE4F7883C55ED140CA51DE4F8883C65EFE
:103FF000D140C951DE4F9883C75ED140CC51DE4FCE
:10400000288139814A815B81C45ED140C154DE4F31
:104010002880CF5BD140C851DE4FB882C85ED14006
:10402000C751DE4FC882C95ED140C651DE4FD8822B
:10403000CA5ED140C551DE4F2882CB5ED140C85107
:10404000DE4F688179818A819B81C85ED1400E9460
:104050006E2DC357DE4F6883CD58D140C155DE4F1A
:104060007883CF5AD140C754DE4F8883C95BD14093
:10407000C154DE4F9883CF5BD14027E137EB41ED50
:1040800058E3C451DE4FB882CC5ED140C351DE4FFD
:10409000C882CD5ED140C251DE4FD882CE5ED140C3
:1040A000C151DE4F2882CF5ED140C451DE4F6881BE
:1040B00079818A819B81CC5ED1400E943E2FC05184
:1040C000DE4F6883C05FD140CF50DE4F7883C15F41
:1040D000D140CE50DE4F8883C25FD140CD50DE4FFD
:1040E0009883C35FD140C051DE4F288139814A8116
:1040F0005B81C05FD140CC50DE4FF882C45FD140BD
:10410000CB50DE4FE882C55FD140CA50DE4F1883E6
:10411000C65FD140C950DE4F0883C75FD140CC5045
:10412000DE4F688179818A819B81C45FD1400E9482
:104130006D2DF62EE72E182F092F27E137EB41EDD5
:1041400058E3C850DE4FA882C85FD140C750DE4F49
:104150008882C95FD140C650DE4F3882CA5FD140E5
:10416000C550DE4F9882CB5FD140C850DE4F68818A
:1041700079818A819B81C85FD1400E946E2DA62ED5
:10418000872E382E992EA3019201C450DE4F6883EA
:10419000CC5FD140C350DE4F7883CD5FD140C25059
:1041A000DE4F8883CE5FD140C150DE4F9883CF5F12
:1041B000D140C450DE4F688179818A819B81CC5F78
:1041C000D1400E94DA2D87FDD4CEBF2CDE2C56CEF6
:1041D0002BED3FE049EC50E4C301B2010E94392FBE
:1041E00087FD8AC12BED3FE049EC50E4C301B201E9
:1041F0000E946D2D6B017C01260137012BED3FE004
:1042000049EC50E4C301B2010E94392F87FFEACF85
:10421000C857DD4FC882D982EA82FB82C858D24093
:1042200020E030E0A901C301B2010E94392F181625
:104230000CF0B7C3E12CC12C10E0312C912CB12C27
:10424000D12C20E030E040E85FE3C357DE4F288305
:1042500039834A835B83CD58D140FD2C27E137EB6E
:1042600041ED58E3C357DE4F688179818A819B8194
:10427000CD58D1400E943E2FC050DE4F6883C050C1
:10428000D240CF5FDD4F7883C150D240CE5FDD4F4B
:104290008883C250D240CD5FDD4F9883C350D24057
:1042A000C050DE4F288139814A815B81C050D240A5
:1042B000232C892CAB2C0F2DCC5FDD4F3882C450C2
:1042C000D240CB5FDD4F9882C550D240CA5FDD4FF0
:1042D000B882C650D240C95FDD4FF882C750D24085
:1042E000CC5FDD4F688179818A819B81C450D24047
:1042F0000E946E2D362E972EB82EF92E27E137EB21
:1043000041ED58E3C85FDD4F2882C850D240C75FF7
:10431000DD4F8882C950D240C65FDD4FA882CA50A7
:10432000D240C55FDD4F0883CB50D240C85FDD4F20
:10433000688179818A819B81C850D2400E943E2F3A
:10434000C45FDD4F6883CC50D240C35FDD4F7883BC
:10435000CD50D240C25FDD4F8883CE50D240C15F86
:10436000DD4F9883CF50D240C45FDD4F2881398123
:104370004A815B81CC50D240C357DE4F688179813E
:104380008A819B81CD58D1400E946D2DC05FDD4F49
:104390006883C051D240CF5EDD4F7883C151D24097
:1043A000CE5EDD4F8883C251D240CD5EDD4F988313
:1043B000C351D240C05FDD4F88819981AA81BB8102
:1043C000C051D240C357DE4F88839983AA83BB83F1
:1043D000CD58D14027E137EB41ED58E3CC5EDD4FBE
:1043E000E882C451D240CB5EDD4FD882C551D24065
:1043F000CA5EDD4FC882C651D240C95EDD4F188308
:10440000C751D240CC5EDD4F688179818A819B8122
:10441000C451D2400E946E2DE62ED72EC82E192FE1
:10442000A3019201C85EDD4F6883C851D240C75EC8
:10443000DD4F7883C951D240C65EDD4F8883CA51B3
:10444000D240C55EDD4F9883CB51D240C85EDD4F70
:10445000688179818A819B81C851D2400E94DA2D7E
:1044600087FDFCCEDF2C20E030E0A901C357DE4FF2
:10447000688179818A819B81CD58D1400E94DA2D53
:1044800087FDCAC2C357DE4F688179818A819B81CB
:10449000CD58D14027E137EB41ED58E30E94DA2DAA
:1044A00087FF8FC260E8B62E7FE4D72E13EC07E4B7
:1044B000E5CCC301B2010E94D805B62ED72E182F25
:1044C000092FDCCCC059DD4FA880B980C057D2403D
:1044D000CE58DD4F88809980C257D240CC58DD4FEE
:1044E00028803980C457D240CA58DD4FC880D9804F
:1044F000C657D2400C94F61520E030E0A901C30164
:10450000B2010E94DA2D87FF8BCE2BED3FE049EC04
:1045100050E4C301B2010E946E2D6B017C012601A3
:10452000370120E030E0A901C301B2010E94DA2D79
:1045300087FDEBCFC457DD4FC882D982EA82FB8268
:10454000CC58D2406DCE20E030E0A901C301B201C9
:104550000E94DA2D87FFE5CC2BED3FE049EC50E4DB
:10456000C301B2010E946E2D6B017C01260137014F
:1045700020E030E0A901C301B2010E94DA2D87FDDD
:10458000EBCFCC57DD4FC882D982EA82FB82C45878
:10459000D240C7CCC301B2010E94D805C45EDD4F32
:1045A0006883CC51D240C35EDD4F7883CD51D24079
:1045B000C25EDD4F8883CE51D240C15EDD4F98830D
:1045C000CF51D240C45EDD4F288139814A815B8161
:1045D000CC51D2406BED7FE089EC9FE30E946D2DC2
:1045E000B62ED72E182F092F49CC20E030E0A90194
:1045F000C301B2010E94392F87FD18C220E030E0CC
:10460000A901C301B2010E94392F18160CF065C32D
:10461000C12CA12C312C912CB12CD12C10E80FE302
:10462000FB2CED2C2AE037ED43E25CE3C05CDD4F70
:10463000F882C054D240CF5BDD4FE882C154D240F3
:10464000CE5BDD4F1883C254D240CD5BDD4F088373
:10465000C354D240C05CDD4F688179818A819B81DF
:10466000C054D2400E943E2FCC5BDD4F6883C454BF
:10467000D240CB5BDD4F7883C554D240CA5BDD4F5F
:104680008883C654D240C95BDD4F9883C754D2405B
:10469000CC5BDD4F288139814A815B81C454D24093
:1046A000C85BDD4FF882C854D240C75BDD4FE8825B
:1046B000C954D240C65BDD4F1883CA54D240C55B93
:1046C000DD4F0883CB54D240C85BDD4F68817981D0
:1046D0008A819B81C854D2400E946E2DF62EE72E0F
:1046E000182F092F2AE037ED43E25CE3C45BDD4F6E
:1046F000C882CC54D240C35BDD4FA882CD54D24097
:10470000C25BDD4F3882CE54D240C15BDD4F988210
:10471000CF54D240C45BDD4F688179818A819B810F
:10472000CC54D2400E946E2DC62EA72E382E992E24
:10473000A3019201C05BDD4F6883C055D240CF5AC0
:10474000DD4F7883C155D240CE5ADD4F8883C255A4
:10475000D240CD5ADD4F9883C355D240C05BDD4F68
:10476000688179818A819B81C055D2400E94DA2D6F
:1047700087FD58CF2ACDA3019201C301B2010E9447
:104780003E2FB62ED72E182F092F78CB20E030E001
:10479000A901C301B2010E94DA2D87FF0CCA2BEDDB
:1047A0003FE049EC50E4C301B2010E946E2D6B0161
:1047B0007C012601370120E030E0A901C301B201EC
:1047C0000E94DA2D87FDEBCFC458DD4FC882D98215
:1047D000EA82FB82CC57D240EEC920E030E0A9014A
:1047E000C301B2010E94DA2D18160CF06FC220E04E
:1047F00030E040E85FE3C301B2010E94392F20E0BE
:1048000030E040E85FE387FDF0C1C301B2010E94E0
:10481000392FB12CD12C10E000E018160CF02ECB63
:10482000F12CE12CA0E83A2EBFE39B2ECC5DDD4FAE
:10483000F882C452D240CB5DDD4FE882C552D240EF
:10484000CA5DDD4F3882C652D240C95DDD4F9882C5
:10485000C752D240CC5DDD4F288139814A815B81CE
:10486000C452D2406FE672E183E89AE30E94DF2DE2
:10487000C85DDD4F6883C852D240C75DDD4F788385
:10488000C952D240C65DDD4F8883CA52D240C55D51
:10489000DD4F9883CB52D240C85DDD4F28813981EE
:1048A0004A815B81C852D240C45DDD4FB882CC5290
:1048B000D240C35DDD4FD882CD52D240C25DDD4FC4
:1048C0001883CE52D240C15DDD4F0883CF52D24013
:1048D000C45DDD4F688179818A819B81CC52D24051
:1048E0000E946E2DB62ED72E182F092F2FE632E1FB
:1048F00043E85AE3C05DDD4FF882C053D240CF5C3D
:10490000DD4FE882C153D240CE5CDD4F3882C253C6
:10491000D240CD5CDD4F9882C353D240C05DDD4FA5
:10492000688179818A819B81C053D2400E946E2D1B
:10493000F62EE72E382E992EA3019201CC5CDD4F86
:104940006883C453D240CB5CDD4F7883C553D240DB
:10495000CA5CDD4F8883C653D240C95CDD4F988363
:10496000C753D240CC5CDD4F688179818A819B81BD
:10497000C453D2400E94DA2D87FD58CF7FCAC301AD
:10498000B2010E942A09B62ED72E182F092F76CAF7
:10499000C301B2010E94D30FB62ED72E182F092FB4
:1049A0006DCA20E030E040E85FE3C357DE4F288364
:1049B00039834A835B83CD58D140312C912CB12C63
:1049C000D12CC357DE4F288139814A815B81CD5874
:1049D000D140C05EDD4F3882C052D240CF5DDD4F46
:1049E0009882C152D240CE5DDD4FB882C252D240D1
:1049F000CD5DDD4FD882C352D240C05EDD4F6881AD
:104A000079818A819B81C052D2400E94DF2DB62ECF
:104A1000D72E182F092F32CAC357DE4F68817981EC
:104A20008A819B81CD58D140905834CD53014201A9
:104A3000B7FAB094B7F8B09420E030E0A901C30110
:104A4000B2010E94DA2D87FF61C1712C612C512CBB
:104A5000412CE12CF12C00E81FE32AE037ED43E282
:104A60005CE3CC5ADD4FE882C455D240CB5ADD4FCF
:104A7000F882C555D240CA5ADD4F0883C655D24088
:104A8000C95ADD4F1883C755D240CC5ADD4F6881D3
:104A900079818A819B81C455D2400E943E2FC85A99
:104AA000DD4F6883C855D240C75ADD4F7883C9555A
:104AB000D240C65ADD4F8883CA55D240C55ADD4F11
:104AC0009883CB55D240C85ADD4F288139814A811D
:104AD0005B81C855D240C45ADD4FE882CC55D240E4
:104AE000C35ADD4FF882CD55D240C25ADD4F0883FC
:104AF000CE55D240C15ADD4F1883CF55D240C45A4B
:104B0000DD4F688179818A819B81CC55D2400E949A
:104B10006E2D7B018C012AE037ED43E25CE3C05A45
:104B2000DD4F7882C056D240CF59DD4F6882C156E2
:104B3000D240CE59DD4F5882C256D240CD59DD4FBA
:104B40004882C356D240C05ADD4F688179818A813C
:104B50009B81C056D2400E946E2D762E672E582E15
:104B6000492ECC59DD4F6883C456D240CB59DD4F16
:104B70007883C556D240CA59DD4F8883C656D24085
:104B8000C959DD4F9883C756D240CC59DD4F288193
:104B900039814A815B81C456D240C501B4010E946B
:104BA000392F18160CF459CFC859DD4FE882C85672
:104BB000D240C759DD4FF882C956D240C659DD4FA1
:104BC0000883CA56D240C559DD4F1883CB56D24010
:104BD000C859DD4F288139814A815B81C856D2404E
:104BE00060E070E080E89FE310CFC301B2010E9453
:104BF000DA2DB12CD12C10E000E0AD2C87FF3EC99E
:104C0000A30192016FE672E183E89AE30E94DF2D2F
:104C1000C85CDD4F6883C853D240C75CDD4F7883E2
:104C2000C953D240C65CDD4F8883CA53D240C55CAD
:104C3000DD4F9883CB53D240C85CDD4F288139814A
:104C40004A815B81C853D240C45CDD4FB882CC53EB
:104C5000D240C35CDD4FA882CD53D240C25CDD4F51
:104C60001883CE53D240C15CDD4F0883CF53D2406E
:104C7000C45CDD4F688179818A819B81CC53D240AD
:104C80000E946D2DB62EA72E182F092F2FE632E188
:104C900043E85AE3C301B2010E946E2D6B017C010F
:104CA0002601370120E030E040E85FE3C301B201B4
:104CB0000E94DA2D87FDA4CFC057DD4FC882D9826C
:104CC000EA82FB82C059D240DA2CD8C8E0E8BE2E76
:104CD000FFE4DF2E13EC07ECD1C8B12CD12C10E887
:104CE0000FE3CCC8CB56DE4F28813981C559D1405E
:104CF000F9013196CB56DE4FF983E883C559D1408F
:104D0000AE014F5F5E4F3A010C94F01AE12CF12C8A
:104D100000E81FE349CFB12CD12C10E000E0AEC871
:104D200060E070E080E090E00C94441DA3019201EB
:104D3000C501B4010E946D2D0C94441DA301920184
:104D4000C501B4010E943E2F0C94441D8F3251F0D6
:104D50008E3531F7A3019201C501B4010E94A7125B
:104D60000C94441D20E030E0A901C301B2010E946F
:104D7000DA2D87FD12C0C301B20127E137EB41ED07
:104D800058E30E94DA2D87FD0CC0A3019201C501F2
:104D9000B4010E94DF2D0C94441DC301B201905850
:104DA000ECCF60E87FE483EC97E40C94441DCDB72E
:104DB000DEB72E970FB6F894DEBF0FBECDBF82E0F0
:104DC00084BD93E095BD99EF97BD80936E000E94DE
:104DD000AE010E94ED01789481E00E94BD018FE355
:104DE0009FE10197F1F700C000008DEC91E00E9477
:104DF00051029FEFE3EDF0E39150E040F040E1F726
:104E000000C0000081E00E94BD018FE39FE1019797
:104E1000F1F700C0000088ED91E00E94510240913E
:104E20006F02509170026091710270917202FE01E6
:104E300031966F0188E2E82E99E2F92E2EE2B22E29
:104E4000222423948091770290917802A091790294
:104E5000B0917A02841B950BA60BB70B893C910588
:104E6000A105B10578F3309906C140916B025091CC
:104E70006C0260916D0270916E02411551056105E1
:104E8000710581F440917702509178026091790226
:104E900070917A0240936B0250936C0260936D02A2
:104EA00070936E028091770290917802A0917902BE
:104EB000B0917A0220917502841B950BA60BB70B5B
:104EC000893E9340A105B10508F0F4C121110AC043
:104ED0008091760290E001966AE070E00E94AB2F2C
:104EE0008093760210926A020E949102809177026A
:104EF00090917802A0917902B0917A0280936F022A
:104F000090937002A0937102B0937202319B5BC0C8
:104F1000329914C090916902911180C080917702FA
:104F200090917802A0917902B0917A0280936F02F9
:104F300090937002A0937102B0937202339BC6C02B
:104F4000349BA2C04F9932C080916A028111F0C097
:104F50008091280290917502911179C0909176020A
:104F6000905D282F30E0911559F08F3348F48F5F12
:104F7000275D3D4FF901908380932802282F30E070
:104F8000275D3D4FF90110820E94910280917702C6
:104F900090917802A0917902B0917A0280936F0289
:104FA00090937002A0937102B0937202189BFEC09E
:104FB000199BA9C040916F025091700260917102DB
:104FC000709172023FCF80912802282F30E08F33FA
:104FD00048F48F5F80932802275D3D4FF901E082FE
:104FE000282F30E0275D3D4FF90110828091690242
:104FF0008F5F809369020E94910280917702909165
:105000007802A0917902B0917A0280936F02909316
:105010007002A0937102B09372027ACF809128023D
:10502000282F30E08F3348F48F5F80932802275D6C
:105030003D4FF901F082282F30E0275D3D4FF90107
:1050400010829150909369020E94910267CF282F9D
:1050500030E08F3348F48F5F80932802275D3D4F07
:10506000F901B082282F30E0275D3D4FF901108211
:105070001092750289CF10926B0210926C021092FE
:105080006D0210926E0242CF80917302082E000CC6
:10509000990B01966EE070E00E94AB2F8093730233
:1050A000F2E0F0936A020E9491028091770290915F
:1050B0007802A0917902B0917A0280936F02909366
:1050C0007002A0937102B09372023CCF809174027F
:1050D00090E00196837099278093740220926A026F
:1050E0000E9491028091770290917802A0917902BA
:1050F000B0917A0280936F0290937002A093710234
:10510000B09372021DCF0E94C3030E94910240918E
:105110007702509178026091790270917A024093FF
:105120006F025093700260937102709372028ACE84
:10513000813009F4E8C0823009F026CFE091730293
:1051400080912802EB3009F4FEC0EC3009F412C162
:10515000ED3009F4C9C0EE0FFF0BE050FF4F019096
:10516000F081E02D9081911509F4DDC0A82FB0E009
:10517000A75DBD4F09C08F5F8093280291919D93D9
:105180009081911509F4CFC08F33A8F3282F30E018
:10519000F901E75DFD4F1082275D3D4FF901108257
:1051A000809169028F5F80936902EECE309169022F
:1051B0003115B9F020912802822F90E02F3338F476
:1051C0002F5F875D9D4FFC01F082822F90E0FC01F4
:1051D000E75DFD4F10823A9589F71092690220939E
:1051E00028020E948F15A62E972E882E392E81E038
:1051F0000E94BD018FE39FE10197F1F700C000001D
:10520000809129020AE212E0811539F00E94210200
:10521000F80181918F018111F9CF80EC0E94BD01CD
:1052200007EE11E08DE30E942102F80181918F01C8
:105230008111F9CF860124E041E04A2C592C682CD9
:10524000732CC301B2010E940A30F60101900020C4
:10525000E9F73297CE16DF0640F00AC082918E320F
:1052600039F01182CE16DF0619F080818033B1F358
:1052700089818E010E5F1F4F811539F00E94210236
:10528000F80181918F018111F9CF109228021092BB
:1052900029028091770290917802A0917902B091D1
:1052A0007A0280936F0290937002A0937102B09380
:1052B00072027ECE81E0211180E0809375028091A0
:1052C000770290917802A0917902B0917A0280934E
:1052D0006B0290936C02A0936D02B0936E021092D9
:1052E0006A020E94910202CE282F30E08F3308F02C
:1052F00047CE8F5F80932802275D3D4FF901B08232
:10530000282F30E03DCE80917402E0911C01F09195
:105310001D01E80FF11D908180912802282F30E0B7
:10532000911123CE2DCE282F30E0F901E75DFD4FFE
:1053300010828F3308F030CF8F5F80932802E08295
:10534000282F30E029CFE82FF0E0E75DFD4FABEDEF
:10535000B1E092E305C08F5F91939D91911511F09B
:105360008F33C8F38093280290E0FC01E75DFD4F86
:1053700010820ACEE82FF0E0E75DFD4FA1EEB1E02C
:1053800093E305C08F5F91939D91911559F38F33EE
:10539000C8F38093280290E0FC01E75DFD4F108286
:1053A000F3CDA2E1B0E0E7EDF9E20C94BF2F7C0170
:1053B0003B018A01FC0117821682838181FF68C349
:1053C000F7012381F30123FD859123FF81913F01A3
:1053D000811509F443C0853239F423FD959123FFEB
:1053E00091913F01953239F4B70190E00E9432313A
:1053F00068018601E5CF30E0512C912C812CF0E240
:105400008F1608F03DC09B3281F160F4903279F143
:10541000933299F19E3209F04AC086FC1FC068940D
:1054200086F806C09D3231F1903361F5689480F8BA
:10543000F30123FD959123FF91913F019111DFCF5E
:10544000882D897F482E903709F494C208F08AC2CB
:10545000983509F494C29F3609F499C2F701868100
:1054600097816296E2E10C94DB2F689481F868944E
:1054700082F8DECF689483F8DBCF689484F8D8CFC5
:1054800087FC1FC080ED890F8A3008F0C3CF86FEED
:1054900006C04AE0549E800D1124582EC9CF5AE010
:1054A000959E800D1124982E689485F8C1CF9C3666
:1054B00019F4689487F8BCCF9C3401F1983609F44C
:1054C000B7CF3115E9F0892F8F7D8554833008F0EF
:1054D000A5C1085F1F4F68018FE3898322242394AD
:1054E000312C8E010F5F1F4FE89487F883FC04C0B6
:1054F0002914310408F4F9C1492C0DC231E098CFC8
:105500008BEB890F8330A8F4689484F8905E86FC56
:1055100002C026E0522EE82DEF738E2E953689F4C8
:10552000689486F828E0521608F044C0252D1E869F
:1055300014C08BE9890F833008F070C1E89484F8B7
:10554000E6CF963689F5689487F8852DFCE35F16DB
:1055500008F08BE38F5F8E8727E0F80161917191EE
:10556000819191916F010E85AE014F5F5F4F0E9457
:105570002F305C01F981F88BF0FF03C01DE2F3FFCF
:1055800005C082FA112715F981FC1BE228892C70CD
:10559000422E211549F111117EC224E0412C9216B0
:1055A00008F490C283E07CC220E0511409F4BFCF1C
:1055B0005A94B8CF27E097E0592EB9CF8110805286
:1055C000B70190E00E9432310F5F1F4FF8018491C4
:1055D0008111F4CF411409F40CCFB70180E290E0BF
:1055E0000E9432314A94F6CF87FE2FC08E858A0DF5
:1055F000F889F4FF04C09A81913309F48150181698
:105600000CF048C08E87893010F028E02E87C50145
:10561000B7FE02C080E090E001961111019651148E
:1056200031F0252D30E02F5F3F4F820F931F8915FA
:10563000910514F4492C481A882D8970811139C0BC
:10564000411030C01115F1F136C086FC28C0E52D9F
:10565000F0E05A141B043CF03CEFA3163FEFB306F6
:1056600014F0689487F83296AE014F5F5F4FE40FF5
:10567000F51F01C05A94511419F082918033D1F36F
:1056800087FE0DC051E0550D5E87A514B1042CF4C2
:105690005A18BDCF81E08E87BACF512CB8CF85E0A4
:1056A00090E0BBCFB70180E290E00E9432314A9493
:1056B000C7CF111529F0B701812F90E00E94323138
:1056C00083FC02C0411040C087FE59C04501B7FEAF
:1056D00002C0812C912CCE0101968A0D9B1DFC01EC
:1056E000E819F909FA8BE98B95014E85241B3109DC
:1056F0003F872E87052D10E0119501951109A814FB
:10570000B9044CF18E859F858815990524F5E989A2
:10571000FA898181F1E08F1A910829893A892F5FEE
:105720003F4F3A8B298B80169106BCF0B70190E071
:105730000E9432313FEF8316930609F7B7018EE2DC
:1057400090E00E943231DBCFB70180E390E00E940D
:1057500032314A94B7CF80E3DDCFA814B90441F4C5
:105760009A81963350F4953319F4488944FF05C063
:10577000B70190E00E9432312DCF81E3F9CF8A81C9
:10578000813319F058895F7E588BB70190E00E94F1
:105790003231511026C085E490E084FC02C085E6D9
:1057A00090E0B7010E943231B7FC06C0A114B104E9
:1057B00071F5888984FF2BC0B194A194B1088DE262
:1057C000B70190E00E94323180E3EAE0AE16B10406
:1057D00004F5B70190E00E943231B701C501C096CF
:1057E000C9CFB7018EE290E00E94323153945394B6
:1057F00012E0812F1F5FFE013196E80FF11D8081BD
:10580000B70190E00E9432311511F3CFC4CF8BE283
:10581000D7CF8F5F9AE0A91AB108D7CF9336F1F1AD
:10582000933709F442C0933509F44EC0943619F009
:10583000993609F07CC0F80187FE71C061917191C1
:10584000819191916F01082D0F7697FF08C0909577
:105850008095709561957F4F8F4F9F4F00682AE02C
:1058600030E0AE014F5F5F4F5D874C870E9485310E
:10587000182F5C85151B06FF94C0802F8E7F151591
:1058800008F08EC004FFE1C002FDD5C00E7E452C9D
:10589000802F8678811509F48FC0D2C06801F2E0AC
:1058A000CF0ED11CF801808118CEF8010191119121
:1058B0006F01652D70E086FC02C06FEF7FEFC801BD
:1058C0000E9427311C0110CEF801019111916F0146
:1058D000652D70E086FC02C06FEF7FEFC8010E946B
:1058E00007311C01689487F801CEB70180E290E08F
:1058F0000E9432319A94FCCDF80187FC859187FE95
:1059000081918F01B70190E00E94323141104A9499
:10591000F1E02F1A31082114310471F75BCE619147
:1059200071916F01072E000C880B990B8CCF482CBE
:10593000E89444F82AE030E0953709F081CDF80189
:1059400047FE28C061917191819191916F018E0103
:105950000F5F1F4FA8010E948531182F101B042DC7
:105960000F7789CF983709F079CD84FC05C020E105
:1059700030E0E5CF689444F8689442F8F8CF84FEAC
:1059800003C0982D9660492E20E132E0D8CF28E060
:1059900030E0D5CF619171916F0180E090E0D7CF79
:1059A000082F412E04FF74CFFE01E10FF11D80810D
:1059B000803309F043C0097E03FD0EC000FF51C0D3
:1059C000512E491418F4590C5418492C892D841956
:1059D000941408F480E0480E491408F044C0941868
:1059E000492C04FF42C0B70180E390E00E943231AD
:1059F00002FF09C088E590E001FD02C088E790E061
:105A0000B7010E9432311515E0F11150012F10E05D
:105A10000F5F1F4F9E012F5F3F4F4901020F131F62
:105A2000F80182918F01B70190E00E943231801617
:105A30009106B1F7CFCD452C082FB6CF02FD02C09D
:105A40004394BACF43944394B7CF452C082F20CF2B
:105A5000B70180E290E00E94323183948914C0F350
:105A6000B5CF842CFBCF412CBCCF802F86788115FD
:105A700051F280E201FD8BE207FD8DE2B70190E07B
:105A8000C0CFB70180E390E00E9432315A94BBCF7F
:105A90008FEF9FEFE6CCF5E0412C9F1670F084E08D
:105AA000492C481A83FC07C0B70180E290E00E94AD
:105AB00032314A94C9F7111529F0B701812F90E0CE
:105AC0000E943231388908E610E033FD02C00CE64E
:105AD00010E0482D4071842E79CD5058BB27AA275D
