:100000000C9434000C943E000C943E000C943E0082
:100010000C943E000C943E000C943E000C943E0068
:100020000C943E000C943E000C943E000C943E0058
:100030000C943E000C943E000C943E000C943E0048
:100040000C943E000C943E000C943E000C943E0038
:100050000C943E000C943E000C943E000C943E0028
:100060000C943E000C943E0011241FBECFEFD8E04C
:10007000DEBFCDBF0E9435010C94AE010C94000090
:10008000299A85ED8A95F1F700002998089595B190
:10009000937C95B984FD2A9A85FD2B9A86FD2C9A2E
:1000A00087FD2D9A299A85ED8A95F1F70000299808
:1000B0000895CF93C82F0E9447008C2F8295807F90
:1000C0000E9447002D98CF910895CF93C82F28986C
:1000D0000E9447008C2F8295807F0E9447002D98B8
:1000E000CF910895CF93C82F289A0E9447008C2F54
:1000F0008295807F0E9447002D98CF91089528987F
:1001000085B1837C85B92A9A2B9A299A85ED8A959F
:10011000F1F70000299880E30E9447002D98289865
:1001200085B1837C85B92A9A2B9A299A95ED9A955F
:10013000F1F70000299880E20E9447002D98289846
:1001400085B1837C85B92B9A299A85ED8A95F1F73B
:100150000000299880E80E9447002D98289885B1D2
:10016000837C85B9299A95ED9A95F1F70000299835
:1001700080EC0E9447002D98289885B1837C85B932
:10018000299A85ED8A95F1F70000299880E60E946A
:1001900047002D98289885B1837C85B9299A95EDDB
:1001A0009A95F1F70000299880E10E9447002D9868
:1001B0008FED9EE20197F1F700C0000008952898A6
:1001C00085B1837C85B9299A85ED8A95F1F7000080
:1001D000299885B1837C85B92A9A299A95ED9A95B3
:1001E000F1F7000029982D988FED9EE20197F1F725
:1001F00000C000000895CF93FC01C081289A8C2F85
:100200000E9447008C2F8295807F0E9447002D9886
:10021000CF9108951F93CF93DF93CDB7DEB7289783
:100220000FB6F894DEBF0FBECDBFBE016F5F7F4F2C
:1002300028E0FB0111922A95E9F74AE00E94790132
:100240001981289A812F0E944700812F8295807FF3
:100250000E9447002D9828960FB6F894DEBF0FBE77
:10026000CDBFDF91CF911F910895CDB7DEB728970D
:100270000FB6F894DEBF0FBECDBF8FEF84B90E94DA
:100280007F00CE0101967C0108E0289885B1837C2F
:1002900085B9299A95ED9A95F1F70000299880E1A2
:1002A0000E9447002D98EFEDFEE23197F1F700C074
:1002B0000000F701202F11922A95E9F74AE0B701D3
:1002C00088E090E00E9479011981289A812F0E948C
:1002D0004700812F8295807F0E9447002D988FEFE5
:1002E0009BE4EDE181509040E040E1F700C0000068
:1002F000CCCFBB274A3031F4992322F4BDE290954C
:1003000081959F4F0C948501BB27FB015527AA2798
:10031000880F991FAA1FA41710F0A41B8395505192
:10032000B9F7A05DAA3308F0A95DA193009779F70A
:10033000B111B1931192CB010C949E01DC01FC012F
:10034000672F71917723E1F7329704C07C916D9309
:1003500070836291AE17BF07C8F30895F894FFCF7A
:00000001FF
